:060000000A128A110C280F
:10000800FE00030EF0000A08F1000A168A11792D85
:100018000A128A110F288313C230FD000830FE002F
:100028000030FF00A03084000A168A11B9240A1291
:100038008A110A128A11FE270A128A11EE000A1280
:100048008A11FF270A128A11EF000A128A11FC2767
:100058000A128A11FA000A128A11FD270A128A1155
:10006800FB0083160313C201C301C401C501C60105
:10007800C701C80183120313E601E701E801E9019A
:10008800EA01EB01EC01ED0183010A128A15622BEA
:1000980083120313E0000A168A11C8260A128A116D
:1000A8005530831203136F06031D5B285C28152A3D
:1000B8000A168A1191240A128A115930F6009130D1
:1000C800F7008030F8000A168A114A250A128A11A8
:1000D800831203136C08D4005407A03E84008313D2
:1000E8000008F600840A00088403F7008530F80049
:1000F8000A168A114A250A128A115330F6009130DD
:10010800F700C030F8000A168A114A250A128A1127
:10011800C63083120313A0000A30F2000030F30047
:100128006908D400D5015408F4005508F5000A16EA
:100138008A1127270A128A117208303E0A168A1174
:10014800C8240A128A11C73083120313A0000A3088
:10015800F2000030F3006908D400D5015408F40017
:100168005508F5000A168A1171260A128A117208B2
:10017800303E0A168A11C8240A128A11C83083121E
:100188000313A0003A300A168A11C8240A128A11E9
:10019800C93083120313A0000A30F2000030F300C4
:1001A8006A08D400D5015408F4005508F5000A1669
:1001B8008A1127270A128A117208303E0A168A11F4
:1001C800C8240A128A11CA3083120313A0000A3005
:1001D800F2000030F3006A08D400D5015408F40096
:1001E8005508F5000A168A1171260A128A11720832
:1001F800303E0A168A11C8240A128A1188308312DE
:100208000313EF007F3083120313D600D430D500D8
:100218003130D400D40B0E29D50B0E29D60B0E295C
:100228000A168A1191240A128A11DA30F6009030DF
:10023800F7008030F8000A168A114A250A128A1136
:100248005F30F6009130F700C030F8000A168A11C6
:100258004A250A128A11EE30F6009030F7009030E5
:10026800F8000A168A114A250A128A11E430F600A3
:100278009030F700D030F8000A168A114A250A1281
:100288008A113C30F2008312031369080A168A1196
:10029800A2240A128A11831203136A07E600E800EF
:1002A8006808D400D501D601D7015708F5005608CB
:1002B800F4005508F3005408F20001300A128A15B8
:1002C800C6200A128A11750883120313AD00740838
:1002D800AC007308AB007208AA003E30A900EB30EE
:1002E800A8008530A7001F30A6000A128A11212411
:1002F8000A128A11831203132908C3002808C200AE
:100308002708C1002608C0000A168A118A270A127F
:100318008A11831203134008E7006808D400D50146
:10032800D601D7015708F5005608F4005508F30020
:100338005408F20001300A128A15C6200A128A11DE
:10034800750883120313AD007408AC007308AB0082
:100358007208AA003D30A900F530A800C230A700F5
:100368008F30A6000A128A1121240A128A118312D8
:1003780003132908C3002808C2002708C10026085B
:10038800C0000A168A118A270A128A1183120313D7
:10039800400883160313C800831203136808D400A7
:1003A800D501D601D7015708F5005608F4005508BD
:1003B800F3005408F20001300A128A15C6200A1206
:1003C8008A11750883120313AD007408AC00730812
:1003D800AB007208AA003E30A900D730A8000A3046
:1003E800A7003D30A6000A128A1121240A128A1198
:1003F800831203132908C3002808C2002708C10074
:100408002608C0000A168A118A270A128A1183123E
:100418000313400883160313C7008312031312152E
:1004280007151F306006031D1A2A1B2A1F2A1211DE
:1004380007117730EE003C30F20069080A168A117D
:10044800A2240A128A11831203136A07E8000830EB
:100458006C020318302A312A8C2A6608D400D50188
:100468005508D70067085402D600031CD70357085D
:10047800803A803C031D422A56086802031C452A1C
:10048800462A522A4730F6009130F7008A30F800A1
:100498000A168A114A250A128A11652B8312031338
:1004A8006608D400D5015508D70067085402D6005D
:1004B800031CD7035708D900831603134708831270
:1004C80003135602D800031CD9035908803A803C0C
:1004D800031D702A58086802031C732A742A802A8C
:1004E8006530F6009130F7008A30F8000A168A1154
:1004F8004A250A128A11652B4D30F6009130F70013
:100508008A30F8000A168A114A250A128A11652BC0
:1005180008306C06031D912A922A302B6808D400F3
:10052800D501D601D7015708F5005608F40055083B
:10053800F3005408F20001300A128A15C6200A1284
:100548008A11750883120313CB007408CA00730854
:10055800C9007208C8006608D800D901DA01DB01B1
:100568005B08F5005A08F4005908F3005808F2002F
:1005780001300A128A15C6200A128A1175088312D8
:100588000313C7007408C6007308C5007208C400C6
:100598006608DC00DD01DE01DF015F08F5005E08AA
:1005A800F4005D08F3005C08F20001300A128A15B5
:1005B800C6200A128A11750883120313AD00740845
:1005C800AC007308AB007208AA003E30A900CC301A
:1005D800A800CC30A700CD30A6000A128A11212429
:1005E8000A128A11831203132908C3002808C200BB
:1005F8002708C1002608C0000A168A11FD240A121D
:100608008A11831203134308CF004208CE00410821
:10061800CD004008CC000A128A1522200A128A113D
:10062800031C172B182B242B6530F6009130F7008C
:100638008A30F8000A168A114A250A128A11652B8F
:100648004D30F6009130F7008A30F8000A168A110A
:100658004A250A128A11652B09306C06031D352BB1
:10066800362B422B4D30F6009130F7008A30F800D7
:100678000A168A114A250A128A11652B0A306C0655
:10068800031D472B482B542B4730F6009130F700B9
:100698008A30F8000A168A114A250A128A11652B2F
:1006A8000B306C06031D592B5A2B652B6530F60051
:1006B8009130F7008A30F8000A168A114A250A1282
:1006C8008A11C63083120313A0000A30F2000030EA
:1006D800F3006908D400D5015408F4005508F50062
:1006E8000A168A1127270A128A117208303E0A163A
:1006F8008A11C8240A128A11C73083120313A00072
:100708000A30F2000030F3006908D400D50154081B
:10071800F4005508F5000A168A1171260A128A1182
:100728007208303E0A168A11C8240A128A11C83083
:1007380083120313A0003A300A168A11C8240A1239
:100748008A11C93083120313A0000A30F200003066
:10075800F3006A08D400D5015408F4005508F500E0
:100768000A168A1127270A128A117208303E0A16B9
:100778008A11C8240A128A11CA3083120313A000EE
:100788000A30F2000030F3006A08D400D50154089A
:10079800F4005508F5000A168A1171260A128A1102
:1007A8007208303E0A168A11C8240A128A11831266
:1007B80003136A08031DE12BE22B202C6908031D93
:1007C800E62BE72B202C0A168A1191240A128A118B
:1007D80083120313071187142930F6009130F700AC
:1007E8008030F8000A168A114A250A128A115330F5
:1007F800F6009030F700C030F8000A168A114A2532
:100808000A128A11333083120313D600BB30D50085
:10081800DF30D400D40B0E2CD50B0E2CD60B0E2C9F
:10082800013083120313EE001130EF0087100A160F
:100838008A1191240A128A110800831203132908C5
:10084800B3008030B3052908AE002E07B900A81FF1
:100858002E2C2F2C302C391439080319342C352C14
:10086800442C390A031D392C3A2C422C0030A9009B
:100878000030A8000030A7000030A600A8174C2CB4
:100888000030A9000030A8000030A7000030A60002
:100898002D088039B3062D08AE002E07B400AC1F12
:1008A800562C572C582C3414340803195C2C5D2C06
:1008B8006C2C340A031D612C622C6A2C0030AD00AC
:1008C8000030AC000030AB000030AA00AC17742C2C
:1008D8000030AD000030AC000030AB000030AA00A2
:1008E80034080319782C792C7E2C3908031D7D2CAB
:1008F8007E2C872C0030A9000030A8000030A7000B
:100908000030A600622F2608F2002C080A168A1169
:1009180021250A128A11730883120313BF00720873
:10092800BE003E08AE00AF01B001B1013108B80009
:100938003008B7002F08B6002E08B5003F08AE00F3
:10094800AF01B001B1013108BD003008BC002F086B
:10095800BB002E08BA002708F2002B080A168A11D5
:1009680021250A128A11730883120313BF00720823
:10097800BE003E08AE00AF01B001B1012E08B507B8
:100988002F0803110318013E0319CB2CB6073008B2
:1009980003110318013E0319D22CB70731080311BC
:1009A8000318013E0319D92CB8073F08AE00AF0160
:1009B800B001B1012E08BA072F0803110318013E30
:1009C8000319E72CBB07300803110318013E03196C
:1009D800EE2CBC07310803110318013E0319F52C4E
:1009E800BD072808F2002A080A168A1121250A12CA
:1009F8008A11730883120313BF007208BE003E08F1
:100A0800AE00AF01B001B1012E08B5072F080311E0
:100A18000318013E0319112DB607300803110318F6
:100A2800013E0319182DB707310803110318013EB9
:100A380003191F2DB8073F08AE00AF01B001B1017F
:100A48002E08BA072F0803110318013E03192D2D8C
:100A5800BB07300803110318013E0319342DBC07E6
:100A6800310803110318013E03193B2DBD07083057
:100A7800AE000310B50DB60DB70DB80DAE0B3D2D7C
:100A88002708F2002A080A168A1121250A128A1153
:100A9800730883120313BF007208BE003E08AE003D
:100AA8003F08AF00B001B1012E08B5072F080311A8
:100AB8000318013E0319612DB60730080311031806
:100AC800013E0319682DB707310803110318013EC9
:100AD80003196F2DB8072608F2002B080A168A1189
:100AE80021250A128A11730883120313BF007208A2
:100AF800BE003E08AE003F08AF00B001B1012E08AD
:100B0800B5072F0803110318013E03198C2DB607EA
:100B1800300803110318013E0319932DB707310854
:100B280003110318013E03199A2DB8070830AE00C7
:100B38000310B50DB60DB70DB80DAE0B9C2D2608DC
:100B4800F2002A080A168A1121250A128A11730846
:100B580083120313BF007208BE003E08AE003F08B0
:100B6800AF00B001B1012E08B5072F080311031813
:100B7800013E0319C02DB607300803110318013EC2
:100B88000319C72DB707310803110318013E0319CC
:100B9800CE2DB8072708F2002C080A168A1121253D
:100BA8000A128A11730883120313BF007208BE0069
:100BB8003E08AE003F08AF00B001B1012E08BA07E9
:100BC8002F0803110318013E0319EB2DBB0730084A
:100BD80003110318013E0319F22DBC073108031154
:100BE8000318013E0319F92DBD072808F2002B0848
:100BF8000A168A1121250A128A117308831203130F
:100C0800BF007208BE003E08AE003F08AF00B0014A
:100C1800B1012E08BA072F0803110318013E031962
:100C2800162EBB07300803110318013E03191D2EA9
:100C3800BC07310803110318013E0319242EBD0710
:100C48002808F2002C080A168A1121250A128A118E
:100C5800730883120313BF007208BE003E08AE007B
:100C68003F08AF00B001B10108300310AE0DAF0D61
:100C7800B00DB10DFF3E031D392E2E08BA072F08FF
:100C880003110318013E03194A2EBB07300803114C
:100C98000318013E0319512EBC073108031103182C
:100CA800013E0319582EBD073508AE003608AF00BF
:100CB8003708B0003808B10018300310B10CB00C78
:100CC800AF0CAE0CFF3E031D612E2E08BA072F088D
:100CD80003110318013E0319722EBB0730080311D4
:100CE8000318013E0319792EBC07310803110318B4
:100CF800013E0319802EBD070830AE000310B50D64
:100D0800B60DB70DB80DAE0B822E39083407AE00FC
:100D1800AF01AF0D2E08823EBE002F080318013E1A
:100D2800FF3EBF00B42E0130AE000310BA0DBB0D5C
:100D3800BC0DBD0DAE0B992EB81FA32EA42EA52E4B
:100D48003A140130AE000310B50DB60DB70DB80D4D
:100D5800AE0BA72EFF30BE070318BF0AFF30BF0730
:100D6800BC1FB72EB82E972EB401B81FBC2EBD2EAF
:100D7800D92EFF303505AE00FF303605AF00FF3005
:100D88003705B0007F303805B100310830042F0432
:100D98002E040319D02ED12ED42E0130B400D92E12
:100DA8003A1CD72ED82ED92ED12E34080319DD2E71
:100DB800DE2E0F2F0130BA07003003180130BB07B1
:100DC800003003180130BC07003003180130BD079C
:100DD8003D1CEF2EF02E0F2F3A08AE003B08AF0057
:100DE8003C08B0003D08B1000130B200310DB10C33
:100DF800B00CAF0CAE0CB20BFA2E3108BD003008A7
:100E0800BC002F08BB002E08BA000130BE0703182B
:100E1800BF0A0030BF073F08803AFF0080307F02DA
:100E2800031D182FFF303E02031C1B2F1C2F272FDA
:100E38007F3083120313BD008030BC000030BB003C
:100E48000030BA00582F831203133F08803AFF007E
:100E580080307F02031D322F01303E020318352FE8
:100E6800362F422F003083120313BD000030BC0020
:100E78000030BB000030BA00B301582F83120313AF
:100E88003E08B900FF30BA05FF30BB057F30BC050E
:100E98000030BD05391C512F522F532FBC1739086C
:100EA800AE0003102E0CBD003308BD043D08A90098
:100EB8003C08A8003B08A7003A08A60008008312CF
:100EC8000313A5012508803EA000FF300A168A11E9
:100ED800C8240A128A11033083120313A4008A302B
:100EE800A3005530A200A20B772FA30B772FA40BDA
:100EF800772F013083120313A50710302502031C36
:100F0800862F872F662F8130A000FF300A168A119E
:100F1800C8240A128A11823083120313A000FF30FA
:100F28000A168A11C8240A128A119730F6009030DE
:100F3800F700C230F8000A168A114A250A128A11E7
:100F48001130F6009030F7009030F8000A168A1138
:100F58004A250A128A1183120313A6012608D03ED5
:100F6800A000FF300A168A11C8240A128A11033019
:100F780083120313A4008A30A3005530A200A20BE9
:100F8800C32FA30BC32FA40BC32F0130831203134A
:100F9800A60710302602031CD22FD32FB22F3330CE
:100FA80083120313A400BB30A300DF30A200A20BFE
:100FB800DB2FA30BDB2FA40BDB2F08000A168A11EB
:100FC80086240A128A110A168A1177240A128A11AB
:100FD8000A168A117D240A128A118B170B17831699
:100FE80003138710071183120313871007110800D2
:100FF80001340134013411346B3491347134913437
:10100800F834903440349134AE349034B934903458
:1010180031349134C43490340C34913420349134C4
:1010280002349134A33490347C3491348134913433
:1010380039349134773491348534913400308312C3
:1010480003134805D00000304905D10080304A0517
:10105800D2007F304B05D30053085204510450048A
:10106800031D3728382840280030CB000030CA003C
:101078000030C9000030C80000304C05D0000030F6
:101088004D05D10080304E05D2007F304F05D3008A
:101098005308520451045004031D532854285C2853
:1010A8000030CF000030CE000030CD000030CC0042
:1010B800CB1F5F28602884280030D0000030D10082
:1010C8000030D2008030D3004808D0024908031C01
:1010D800490F6F287028D1024A08031C4A0F752847
:1010E8007628D2024B08031C4B0F7B287C28D3029E
:1010F8005308CB005208CA005108C9005008C8005C
:10110800CF1F87288828AC280030D0000030D100B5
:101118000030D2008030D3004C08D0024D08031CA8
:101128004D0F97289828D1024E08031C4E0F9D2872
:101138009E28D2024F08031C4F0FA328A428D302CD
:101148005308CF005208CE005108CD005008CC00FB
:101158008030CB068030CF064F084B02031DBE28D7
:101168004E084A02031DBE284D084902031DBE2829
:101178004C0848020318C128C228C4280310C528EF
:101188000314080083120313A00020080319CD28B4
:10119800CE28E228F51FD128D228E2287209A20019
:1011A8007309A3007409A4007509A500A20A03190C
:1011B800A30A0319A40A0319A50AEA287508A500B1
:1011C8007408A4007308A3007208A20075087404C8
:1011D80073047204031DF128F228FB280030F5007F
:1011E8000030F4000030F3000030F2007B29963024
:1011F800A10009290130A10701300310A50CA40C96
:10120800A30CA20CFF3E031D0129FE302505031D7A
:101218000E290F29FE2829290130A1070130A2072C
:10122800003003180130A307003003180130A40769
:10123800003003180130A50701300310A50CA40CD9
:10124800A30CA20CFF3E031D2129FF302505031D19
:101258002E292F2910293B290130A1020130F6003F
:101268000310A20DA30DA40DA50DF60B3429A41B84
:101278003E293F29452902302102031844294529DE
:1012880030292118482949295129FF30A205FF3062
:10129800A3057F30A405FF30A5050310A10C210884
:1012A800F600F701F801F90118300310F60DF70DF3
:1012B800F80DF90DFF3E031D59297608A204770899
:1012C800A3047808A4047908A504200803196D2943
:1012D8006E297329F51F712972297329A517250805
:1012E800F5002408F4002308F3002208F20008009F
:1012F80083120313A40011306F06031D8429852966
:101308008E290A168A1191240A128A1588308312A6
:101318000313EF0037302406031D93299429A429C9
:101328000A168A1191240A128A15013083120313AE
:10133800EC070C306C06031DA229A329A429EC0193
:101348000030F6009030F7008030F8000A168A1155
:101358004A250A128A15C03083120313A0003E30B2
:101368000A168A11C8240A128A150A30831203132E
:101378006C020318C029C129FF296C08A2002207A2
:10138800A03E840083130008F600840A0008840342
:10139800F700C230F8000A168A114A250A128A157F
:1013A800831203136C08A2002207A23E8400831351
:1013B8000008F600840A00088403F7009230F80059
:1013C8000A168A114A250A128A15831203136C0811
:1013D800A2002207A43E840083130008F600840AB2
:1013E80000088403F700D230F8000A168A114A254B
:1013F8000A128A156E2A0A306C06031D042A052A69
:101408003B2A6C08A2002207A03E84008313000830
:10141800F600840A00088403F700C230F8000A16B0
:101428008A114A250A128A15831203136C08A2002E
:101438002207A23E840083130008F600840A0008ED
:101448008403F7009230F8000A168A114A250A1216
:101458008A15831603132008F6002108F700D230F6
:10146800F8000A168A114A250A128A156E2A0B30C4
:101478006C06031D402A412A6E2A6C08A200220726
:10148800A03E840083130008F600840A0008840341
:10149800F700C230F8000A168A114A250A128A157E
:1014A800831603132008F6002108F7009230F8008D
:1014B8000A168A114A250A128A1583160313220866
:1014C800F6002308F700D230F8000A168A114A25D8
:1014D8000A128A15080083120313A40044306F0609
:1014E800031D772A782A812A0A168A1191240A125A
:1014F8008A15883083120313EF0037302406031D42
:10150800862A872A972A0A168A1191240A128A1586
:10151800013083120313EB0705306B06031D952A70
:10152800962A972AEB017030F6009030F700803049
:10153800F8000A168A114A250A128A15C030831241
:101548000313A0002A300A168A11C8240A128A1521
:101558000330831203136B020318B32AB42AF22A46
:101568006B08A2002207B83E840083130008F60027
:10157800840A00088403F700C130F8000A168A11AB
:101588004A250A128A15831203136B08A200220740
:10159800BA3E840083130008F600840A0008840316
:1015A800F7009130F8000A168A114A250A128A159E
:1015B800831203136B08A2002207BC3E8400831326
:1015C8000008F600840A00088403F700D130F80008
:1015D8000A168A114A250A128A15612B03306B06EE
:1015E800031DF72AF82A2E2B6B08A2002207B83E03
:1015F800840083130008F600840A00088403F700B7
:10160800C130F8000A168A114A250A128A1583126F
:1016180003136B08A2002207BA3E84008313000854
:10162800F600840A00088403F7009130F8000A16CF
:101638008A114A250A128A15831603133808F600F8
:101648003908F700D130F8000A168A114A250A121B
:101658008A15612B04306B06031D332B342B612B49
:101668006B08A2002207B83E840083130008F60026
:10167800840A00088403F700C130F8000A168A11AA
:101688004A250A128A15831603133808F600390802
:10169800F7009130F8000A168A114A250A128A15AD
:1016A800831603133A08F6003B08F700D130F80018
:1016B8000A168A114A250A128A1508000A128A117E
:1016C800E2270A128A158A30F6009030F700823035
:1016D800F8000A168A114A250A128A157D30F60082
:1016E8009030F700C230F8000A168A114A250A120B
:1016F8008A152230F6009030F7009030F8000A166C
:101708008A114A250A128A1501300A168A11C62535
:101718000A128A1583120313ED002F306D06031D7C
:10172800962B972B982BA72B023083120313E300D9
:101738004530E200A930E100E10BA02BE20BA02B21
:10174800E30BA02B882B0A168A1191240A128A15FA
:101758000A128A1163270A128A1501300A168A1199
:10176800C6250A128A1583120313ED00F430E4002B
:101778000130E500FF30E4070318E50AFF30E5070C
:10178800640A031DCB2B650A031DCB2BCC2BBE2B68
:1017980099306D06031DD12BD22BDC2B6E03031D54
:1017A800D62BD72BDC2B0230EE004430EF00532C25
:1017B80099306D06031DE12BE22B0B2C02306E06CF
:1017C800031DE72BE82B0B2C0330EE000A168A11B9
:1017D80091240A128A15CF30F6009030F700C030F5
:1017E800F8000A168A114A250A128A151630F600D8
:1017F8009130F7009030F8000A168A114A250A122B
:101808008A150A128A1567240A128A15532C061A91
:101818000E2C0F2C1A2C77306E06031D142C152C49
:101828001A2C0430EE0012150715532C532C6D0892
:101838000A128A157C210A128A15B12B6D080A1220
:101848008A156F220A128A15B12B6230F600903081
:10185800F7008030F8000A168A114A250A128A15FC
:101868002F30831203136D06031D3B2C3C2C412C97
:101878000430EE005530EF00B12B1F306D06031D0C
:10188800462C472C632C0130EE001130EF00B12BB1
:101898006D080A128A114C200A128A15B12B83127C
:1018A80003136E08013A03191B2C033A0319222C5F
:1018B800013A0319292C073A03194C2CB12BB12BE7
:1018C8000A128A110C28872DE9012130EA00AF2D70
:1018D800E9012930EA00AF2DE9012D30EA00AF2DEA
:1018E8006B08003A03196C2C013A0319682C033A67
:1018F80003196C2C013A0319702C073A0319702C40
:10190800AF2DE9012B30EA00AF2DE9013230EA00B2
:10191800AF2DE9013930EA00AF2D6B08003A031901
:10192800892C013A0319852C033A0319892C013AA9
:1019380003198D2C073A03198D2CAF2DE9011A30A4
:10194800EA00AF2DE9011F30EA00AF2D6B08003A1D
:101958000319A22C013A0319A22C033A0319A22C49
:10196800013A0319A62C073A0319A62CAF2D01300A
:10197800E9001030EA00AF2D6B08003A0319BB2CC0
:10198800013A0319BB2C033A0319BB2C013A03197A
:10199800BB2C073A0319BB2CAF2D0130E9002430CA
:1019A800EA00AF2D6B08003A0319D12C013A03194C
:1019B800D12C033A0319D12C013A0319D12C073A37
:1019C8000319D12CAF2DE9012430EA00AF2D6B08A3
:1019D800003A0319A62C013A0319A62C033A031955
:1019E800A62C013A0319E72C073A0319E72CAF2D67
:1019F800E9011D30EA00AF2D6B08003A0319FC2CF1
:101A0800013A0319FC2C033A0319FC2C013A031977
:101A1800FC2C073A0319FC2CAF2DE9012E30EA0003
:101A2800AF2DE9013530EA00AF2D0130E900EA01B8
:101A3800AF2D6B08003A0319152D013A0319112D22
:101A4800033A0319152D013A0319192D073A0319F9
:101A5800192DAF2DE9011230EA00AF2DE90114303C
:101A6800EA00AF2D6B08003A0319322D013A031929
:101A78002E2D033A0319322D013A0319322D073A54
:101A88000319322DAF2DE9010630EA00AF2D6B089E
:101A9800003A0319472D013A0319472D033A031950
:101AA800472D013A0319472D073A0319472DAF2D42
:101AB800E9011030EA00AF2DE9011530EA00AF2D39
:101AC8006B08003A0319602D013A03195C2D033A9B
:101AD8000319602D013A0319A22C073A0319A22C05
:101AE800AF2D892C6B08003A0319892C013A031988
:101AF800752D033A0319892C013A0319892C073AE1
:101B08000319892CAF2D831203136C08003A0319AB
:101B1800742C013A0319912C033A0319AA2C013A9F
:101B28000319C02C073A0319D62C013A0319EB2CD8
:101B3800033A0319002D013A03191D2D0F3A031911
:101B4800362D013A03194B2D033A0319642D013A36
:101B58000319762DAF2D0800750883120313A8000A
:101B68008030A8057508A0002007AA00F41FBD2D25
:101B7800BE2DBF2D2A142A080319C32DC42DD42D18
:101B88002A0A031DC82DC92DD12D0030F5000030BB
:101B9800F4000030F3000030F200F417F501DC2DFA
:101BA8000030F5000030F4000030F3000030F2009F
:101BB8007908A9008030A905290828060319E52D08
:101BC800E62DE72D28177908A0002007A900F81F9F
:101BD800EE2DEF2DF02D291429080319F42DF52DDC
:101BE800052E290A031DF92DFA2D022E0030F900C1
:101BF8000030F8000030F7000030F600F817F9015F
:101C08000D2E0030F9000030F8000030F7000030E9
:101C1800F6002A0829020318122E132E372E281F21
:101C2800162E172E192E8030A8062A08AB00290870
:101C3800AA002B08A9007208AB007608F2002B084E
:101C4800F6007308AB007708F3002B08F700740858
:101C5800AB007808F4002B08F8007508AB00790889
:101C6800F5002B08F900AB012908A000A101210803
:101C7800A3002A082002A200031CA3032308803A19
:101C8800FF0080307F02031D4B2E1A302202031CF6
:101C98004E2E4F2E842E7508740473047204031D8F
:101CA800562E582E0130592E003083120313AB00E4
:101CB8000030F5000030F4000030F3000030F2008E
:101CC8002908AA008C2E2B1C6A2E6B2E722E2B082C
:101CD800A0000310200C0138AB00742E0310AB0CCD
:101CE800721C772E782E792EAB170130A000750D57
:101CF800F50CF40CF30CF20CA00B7B2E0130AA07A8
:101D08008312031329082A02031C8B2E8C2E672E9C
:101D1800281B8F2E902ED72E2A08031D942E952E21
:101D28009E2E0030F5000030F4000030F300003043
:101D3800F200FF2F7608F207770803110318013E17
:101D48000319A72EF307780803110318013E031996
:101D5800AE2EF407790803110318013E0319B52EB6
:101D6800F507751CB82EB92E8B2F2B1CBC2EBD2E3B
:101D7800C42E2B08A0000310200C0138AB00C62E7F
:101D88000310AB0C721CC92ECA2ECB2EAB17013018
:101D9800A000750DF50CF40CF30CF20CA00BCD2E75
:101DA8000130AA078B2F7508803AFF007908803A1E
:101DB8007F02031DE92E78087402031DE92E7708B7
:101DC8007302031DE92E760872020318EC2EED2E1D
:101DD800442FFF30A000FF30A100FF30A200FF30E9
:101DE800A3007608A4007708A5007808A60079085B
:101DF800A7007208A4027308031C730F042F052F91
:101E0800A5027408031C740F0A2F0B2FA60275086D
:101E1800031C750F102F112FA7022408A0072508EF
:101E28000318250F182F192FA10726080318260FA6
:101E38001E2F1F2FA20727080318270AA307230806
:101E4800F5002208F4002108F3002008F200803091
:101E5800A8062B03FF3AAB002B08031D342F352FA0
:101E6800522F0130F207003003180130F307003019
:101E780003180130F407003003180130F507522F1A
:101E88007608F2027708031C770FF3027808031C20
:101E9800780FF4027908031C790FF50275087404A9
:101EA80073047204031D592F5A2F872F2B08031D03
:101EB8005E2F5F2F872F0030F5000030F4000030D0
:101EC800F3000030F200FF2F0130A0000310F20DE4
:101ED800F30DF40DF50DA00B6A2FAB1F742F752FA2
:101EE800762F72142B1C792F7A2F7E2F03142B0D2B
:101EF800AB00802F0310AB0D2A080319842F852F00
:101F0800872F0130AA02F41F8A2F8B2F682FA9016F
:101F1800AB1F8F2F902F9E2F2B087F390319952FDA
:101F2800962F992F0130A9009E2F721C9C2F9D2F50
:101F38009E2F962F29080319A22FA32FD52F0130E2
:101F4800F207003003180130F3070030031801309E
:101F5800F407003003180130F507751CB42FB52FAE
:101F6800D52F7208A0007308A1007408A200750894
:101F7800A3000130A400230DA30CA20CA10CA00CFB
:101F8800A40BBF2F2308F5002208F4002108F30052
:101F98002008F2002A0A0319D22FD32FD52F013097
:101FA800AA072A0A0319D92FDA2FDF2F2A08031DB7
:101FB800DE2FDF2FED2F0030F5000030F400003069
:101FC800F3000030F2002A08031DEB2FEC2FED2F51
:101FD800A8012A1CF02FF12FF32FF417F52F7F30CB
:101FE800F4052A08A0000310200CF500A81FFD2FF7
:101FF800FE2FFF2FF5170800573461347334683407
:1020080069346E3467342034503472346F34673432
:10201800723461346D343A34003457346134733473
:10202800683469346E346734203420346D34613454
:102038006334683469346E34653400345734413459
:102048005334483449344E344734203420344D34E2
:1020580041344334483449344E34453400345434DC
:1020680068346534203464346F346F347234273400
:10207800733420346F34703465346E340034503423
:102088006C346534613473346534203463346C34AF
:102098006F34733465342034493474340034523422
:1020A80065346D346F3476346534203463346C347D
:1020B8006F347434683465347334003450345234B3
:1020C8004534533453342034533457344934543416
:1020D800433448343A340034573441345434453462
:1020E800523420344C344534563445344C343A3424
:1020F800003450346F3477346534723420346F349C
:102108006E34203474346834653400345034723496
:1021180065347334733420345234423434342034C4
:1021280074346F34003450346F3477346534723417
:1021380069346E34673420346F346E34003441347B
:102148007134753461342034733474346F347234B8
:102158006534003453347434613469346E34203453
:1021680077346134733468340034453463346F34FD
:1021780063346F34743474346F346E3473340034AD
:1021880042346534643420347334683465346534D7
:102198007434733400345234423434343A3420348E
:1021A800533454344134523454340034463475343E
:1021B8006E346334743469346F346E343A340034B2
:1021C8005234423435343A3450344134553453342B
:1021D800453400345234423434343A345334543469
:1021E8004134523454340034443465346C346934E2
:1021F800633461347434653473340034573461346F
:102208007334683420346F346E346C347934003469
:10221800523469346E34733465342B344434723434
:10222800793400345234423435343A342034533417
:1022380054344F34503400344434723479342034B4
:102248006F346E346C347934003444346F346E3403
:102258006534203421342134003457346F346F34DA
:102268006C3465346E34733400344D3465346434FE
:10227800693475346D3400345734683469347434CF
:10228800653473340034573441345334483420347B
:1022980000345334503449344E34203400345434E8
:1022A80049344D3445343A340034503452344F3480
:1022B80047343A340034543469346D3465343A342C
:1022C8000034523449344E345334453400344434A1
:1022D800613469346C347934003448346534613499
:1022E80076347934003448346934673468340034D7
:1022F8004134753474346F3400344C346F3477346B
:1023080000344D34613478340034FF1B932983132F
:102318007F1883170008840A0319FF0A08007F083A
:0E2328007F398A000408840A0319FF0A820024
:1028EE008316031306083F3886000800FA30831655
:1028FE00031392008C148312031312110800831613
:10290E0003138801091189100A168A111A260A164C
:10291E008A110800F20101300A168A11DD240A1606
:10292E008A110430F7003D30F600F60B9C2CF70BA5
:10293E009C2CA12C0800F400F301741CA72CA82CCD
:10294E00AA2C7208F3070310F20D0310F40C74088E
:10295E00031DB22CB32CA42C730808007E088A0029
:10296E007F0882000A168A11B5240A168A11800081
:10297E00840A04087D0603190034FF0A0319FE0AAF
:10298E00B92C83120313A100F20120080A168A1132
:10299E00DD240A168A11F201F20A831203132108AA
:1029AE000A168A11DD240A168A110800F50072181B
:1029BE00E12CE52C831203130915E82C8312031363
:1029CE000911750888008914A630F300F30BED2C5D
:1029DE0000008312031389101B30F4009E30F300A5
:1029EE00F30BF72CF40BF72C000008008030831249
:1029FE000313C3064708F5004608F4004508F30024
:102A0E004408F2004308F9004208F8004108F700B4
:102A1E004008F6000A128A15B0250A168A117508A2
:102A2E0083120313C3007408C2007308C100720836
:102A3E00C000080083120313A400A001A1017208B4
:102A4E00F400F5017408A2007508A300241C302DB3
:102A5E00312D372D2208A0070318A10A2308A1073C
:102A6E0001300310A20DA30DFF3E031D382D0310E0
:102A7E00A40C2408031D442D452D2D2D2108F300F3
:102A8E002008F2000800F20178080A168A11DD24E7
:102A9E000A168A11682DF201F20A7708FF007608ED
:102AAE0084000A168A1189210A168A110A168A11B9
:102ABE00DD240A168A110130F6070318F70A0030D2
:102ACE00F707770883120313FF00760884000A16AF
:102ADE008A1189210A168A11003A031D772D782D45
:102AEE00522D0800831203138C1C7E2D7F2DBF2DBB
:102AFE00013083160313C207003003180130C307D9
:102B0E00003003180130C407003003180130C50728
:102B1E00203042064E300319430644044504031D7B
:102B2E00992D9A2DBC2D831203136A080319A02D1B
:102B3E00A12DA42D0130EA02B22D6A08031DA82D85
:102B4E00A92DB22D69080319AD2DAE2DB22D013070
:102B5E00E9023C30EA00003083160313C500003052
:102B6E00C4000030C3000030C200831203138C1067
:102B7E0071088A00700E8300FE0E7E0E090083120D
:102B8E0003130608F2003F30F2053F3072060319B8
:102B9E00D12DD22DDE2D7B080319D62DD72DDE2D6E
:102BAE00FB01FA01720883160313C600182E3F307C
:102BBE007206031DE32DE42DF52D7B08031DE82D74
:102BCE00E92DF52D0130FB001E307A020318F02D91
:102BDE00F12D182E831603134608192E7B08031D9C
:102BEE00F92DFA2D032E1F307A020318FF2D002E19
:102BFE00032E0130FA07182E7B08031D072E082E10
:102C0E00182E1F307A06031D0D2E0E2E182E37305D
:102C1E007206031D132E142E182E0130FA0799304A
:102C2E00192E3F300800C330F700CD30F600F60BFA
:102C3E001E2EF70B1E2EF20133300A168A11DD24DA
:102C4E000A168A111B30F7009E30F600F60B2D2E59
:102C5E00F70B2D2E0000F20133300A168A11DD24F7
:102C6E000A168A11A630F600F60B3B2E0000F20172
:102C7E0033300A168A11DD240A168A11462E472E83
:102C8E000000F2013C300A168A11DD240A168A1160
:102C9E00A630F600F60B512E0000F20101300A1696
:102CAE008A11DD240A168A110430F7003D30F60031
:102CBE00F60B5F2EF70B5F2E642EF2010C300A1608
:102CCE008A11DD240A168A11A630F600F60B6D2E37
:102CDE0000000800F701F51F752E762E7D2EF409E3
:102CEE00F509F40A0319F50A0130F700F31F802ED7
:102CFE00812E862EF209F309F20A0319F30A7208DD
:102D0E00730403198B2E8C2EB92E0130F600982EDB
:102D1E0001300310F20DF30DFF3E031D902E013016
:102D2E00F607F31F9B2E9C2E8F2E73087502031D24
:102D3E00A22E72087402031CA52EA62EAC2E7208AB
:102D4E00F4027308031CF503F50201300310F30CB3
:102D5E00F20CFF3E031DAD2E0130F602031DB82E00
:102D6E00B92E9C2E77080319BD2EBE2EC32EF40944
:102D7E00F509F40A0319F50A7508F3007408F20050
:102D8E000800831203130618CD2ECE2E262F071100
:102D9E00121187140A168A1191240A168A113330D9
:102DAE00F6009030F7008030F8000A168A114A2596
:102DBE000A168A114330F6009030F700C030F80042
:102DCE000A168A114A250A168A1183120313061C43
:102DDE00F12EF22EEC2E0715121587100A168A11F7
:102DEE0091240A168A11DA30F6009030F7008030FE
:102DFE00F8000A168A114A250A168A115F30F60063
:102E0E009130F700C030F8000A168A114A250A16CA
:102E1E008A11EE30F6009030F7009030F8000A1666
:102E2E008A114A250A168A11E430F6009030F7000E
:102E3E00D030F8000A168A114A250A168A1108009F
:102E4E00F701F31F2B2F2C2F332FF209F309F20A60
:102E5E000319F30A0130F700F51F362F372F3E2FD7
:102E6E00F409F509F40A0319F50A0130F706F80119
:102E7E00F901720873040319452F462F7B2F013079
:102E8E00F600522F01300310F20DF30DFF3E031D1D
:102E9E004A2F0130F607F31F552F562F492F0130B9
:102EAE000310F80DF90DFF3E031D572F7308750221
:102EBE00031D632F72087402031C662F672F6E2F7B
:102ECE007208F4027308031CF503F502781401303E
:102EDE000310F30CF20CFF3E031D6F2F0130F602B0
:102EEE00031D7A2F7B2F562F770803197F2F802FE4
:102EFE00852FF809F909F80A0319F90A7908F30078
:102F0E007808F2000800031083120313420D430DDC
:102F1E00C9004908031D942F952F9E2F0030C30022
:102F2E000030C2000030C1000030C000FF2F40084A
:102F3E00C4004108C5004208C6004308C7001F3040
:102F4E000310C70CC60CC50CC40CFF3E031DA72FE7
:102F5E004408C800C217FF30C005FF30C105FF305E
:102F6E00C2050030C3059630C902C91FBF2FC02F3E
:102F7E00D82F4908803A973E0318C62FC72FC82F5F
:102F8E00952F01300310C30CC20CC10CC00CFF3EB8
:102F9E00031DC92F0130C907031DD62FD72FC82FE8
:102FAE00EF2F20304902031CDD2FDE2FEA2F952F45
:102FBE000130C4000310C00DC10DC20DC30DC40BF2
:102FCE00E12F0130C9024908031DEE2FEF2FDF2F2D
:102FDE0048080319F32FF42FFF2FC009C109C209A6
:102FEE00C309C00A0319C10A0319C20A0319C30A85
:022FFE000800C9
:02400E00FB3F76
:00000001FF
